:020000040800F2
:1000000000280020E50600084D06000853060008F9
:10001000590600085F060008650600080000000099
:100020000000000000000000000000006B06000857
:100030007706000800000000830600088F0600080D
:100040002D0700082D0700082D0700082D070008C0
:100050002D0700082D0700082D0700082D070008B0
:100060002D0700082D0700082D0700082D070008A0
:100070002D0700082D0700089D060008B10600089E
:100080002D0700082D0700082D0700082D07000880
:100090002D0700082D0700082D0700082D07000870
:1000A0002D0700082D0700082D0700082D07000860
:1000B0002D0700082D070008000000002D0700088C
:1000C0002D07000800000000000000002D070008B8
:1000D00000000000C50600082D0700080000000011
:1000E0002D0700082D0700082D070008000000005C
:1000F0000000000000000000000000000000000000
:0C01000000000000000000005FF808F1A3
:10010C0010B5054C237833B9044B13B10448AFF345
:10011C0000800123237010BD0C00002000000000A3
:10012C00A828000808B5034B1BB103490348AFF3DB
:10013C00008008BD0000000010000020A828000866
:10014C0080B582B000AF00F0EDFA00F033F800F0AB
:10015C00C9F800F0B1F800F085F800F066F800235B
:10016C00FB8006E0FB880F4A7821D154FB880133D1
:10017C00FB80FB8840F2CD729342F3D9094B0D22E0
:10018C0083F8CE27074B0A2283F8CF27192206497A
:10019C00064801F084FD01220549044801F0C3FD25
:1001AC00FEE700BF00010020C0280008BC000020B2
:1001BC003000002080B590B000AF07F11803282262
:1001CC000021184602F062FB3B1D00221A605A60A7
:1001DC009A60DA601A610223BB610123BB621023AF
:1001EC00FB6200237B6307F11803184601F05EF8ED
:1001FC000346002B01D000F04BF90F237B6000234A
:10020C00BB600023FB6000233B6100237B613B1D33
:10021C000021184601F0CAFA0346002B01D000F069
:10022C0037F900BF4037BD4680BD80B500AF002216
:10023C000021252000F0AFFB252000F0C8FB002298
:10024C0000210F2000F0A7FB0F2000F0C0FB0022C4
:10025C0000210E2000F09FFB0E2000F0B8FB00BF29
:10026C0080BD000080B500AF114B124A1A60104BD4
:10027C004FF416525A600E4B00229A600C4B00221F
:10028C00DA600B4B00221A61094B0C225A61084BA5
:10029C0000229A61064B0022DA61054801F020FC2D
:1002AC000346002B01D000F0F3F800BF80BD00BF67
:1002BC00BC0000200038014080B483B000AF084B74
:1002CC005B69074A43F001035361054B5B6903F01B
:1002DC0001037B607B6800BF0C37BD4680BC704758
:1002EC000010024080B586B000AF07F10803002271
:1002FC001A605A609A60DA60184B9B69174A43F08F
:10030C0010039361154B9B6903F010037B607B68B2
:10031C00124B9B69114A43F0040393610F4B9B6989
:10032C0003F004033B603B6800224FF400510C487F
:10033C0000F08AFF4FF40053BB600123FB600023E5
:10034C003B6102237B6107F108031946044800F066
:10035C0001FE00BF1837BD4680BD00BF0010024033
:10036C000010014080B582B000AF7860224B1B7842
:10037C00302B18D1214801F006FD214B00221A60C8
:10038C00642302221F491D4801F0F7FB642301225C
:10039C0019491A4801F0F1FB642309221A4917483C
:1003AC0001F0EBFB1FE0144B1B78312B15D1144BD8
:1003BC0001221A60642302221249104801F0DDFB6D
:1003CC00642301220C490D4801F0D7FB64230A2257
:1003DC000E490A4801F0D1FB05E0642311220C49B7
:1003EC00064801F0CAFB01220349044801F09BFCBA
:1003FC0000BF0837BD4680BD30000020BC00002087
:10040C002C000020DC280008E0280008EC2800085C
:10041C00F828000880B584B000AF7860194B1B68D1
:10042C00002B0CBF01230023DBB21A46154B1A60BC
:10043C004FF47A73FB810FE0124B1B68002B04D036
:10044C00FB89114A2621D15403E0FB890E4A7A21FB
:10045C00D154FB890133FB81FB8940F2CD7293426D
:10046C00EAD9094B0D2283F8CE27074B0A2283F8D1
:10047C00CF274FF40051054800F0FEFE00BF1037A7
:10048C00BD4680BD28000020000100200010014066
:10049C0080B400AF72B600BFFEE7000080B485B038
:1004AC0000AF154B9B69144A43F001039361124B47
:1004BC009B6903F00103BB60BB680F4BDB690E4A01
:1004CC0043F08053D3610C4BDB6903F080537B60AA
:1004DC007B680A4B5B68FB60FB6823F0E063FB60A6
:1004EC00FB6843F08063FB60044AFB68536000BF09
:1004FC001437BD4680BC704700100240000001401C
:10050C0080B588B000AF786007F1100300221A6044
:10051C005A609A60DA607B681B68424A93427DD1CC
:10052C00414B9B69404A43F4804393613E4B9B692A
:10053C0003F48043FB60FB683B4B9B693A4A43F0F6
:10054C0004039361384B9B6903F00403BB60BB68E5
:10055C004FF400733B6102237B610323FB6107F1C2
:10056C0010031946314800F0F5FC4FF480633B61F1
:10057C0000237B610023BB6107F1100319462B4854
:10058C0000F0E8FC2A4B2B4A1A60294B00225A60D7
:10059C00274B00229A60264B8022DA60244B0022E3
:1005AC001A61234B00225A61214B00229A61204B85
:1005BC000022DA611E4800F025FA0346002B01D018
:1005CC00FFF766FF7B681A4A9A63194A7B68536285
:1005DC00194B1A4A1A60184B10225A60164B0022FB
:1005EC009A60154B8022DA60134B00221A61124B71
:1005FC0000225A61104B00229A610F4B0022DA61E3
:10060C000D4800F0FFF90346002B01D0FFF740FF27
:10061C007B68094A5A63084A7B68536200BF2037DB
:10062C00BD4680BD0038014000100240000801406A
:10063C0078000020580002403400002044000240A2
:10064C0080B400AFFEE780B400AFFEE780B400AF2B
:10065C00FEE780B400AFFEE780B400AFFEE780B4E5
:10066C0000AF00BFBD4680BC704780B400AF00BF78
:10067C00BD4680BC704780B400AF00BFBD4680BC97
:10068C00704780B500AF00F093F800BF80BD00004C
:10069C0080B500AF024800F01FFB00BF80BD00BF5B
:1006AC003400002080B500AF024800F015FB00BFFD
:1006BC0080BD00BF7800002080B500AF024801F07B
:1006CC00A7FB00BF80BD00BFBC00002080B400AF02
:1006DC0000BFBD4680BC70470C480D490D4A002335
:1006EC0002E0D458C4500433C4188C42F9D30A4ADB
:1006FC000A4C002301E013600432A242FBD3FFF743
:10070C00E5FF02F09FF8FFF71BFD7047000000208B
:10071C000C0000203C2900080C000020D40800200C
:10072C00FEE7000080B500AF084B1B68074A43F09A
:10073C0010031360032000F023F90F2000F008F8D9
:10074C00FFF7ACFE0023184680BD00BF002002401E
:10075C0080B582B000AF7860124B1A68124B1B78D0
:10076C0019464FF47A73B3FBF1F3B2FBF3F318466B
:10077C0000F03BF90346002B01D001230EE07B680F
:10078C000F2B0AD8002279684FF0FF3000F003F9E4
:10079C00064A7B681360002300E0012318460837E3
:1007AC00BD4680BD00000020080000200400002091
:1007BC0080B400AF054B1B781A46054B1B681344DD
:1007CC00034A136000BFBD4680BC70470800002080
:1007DC00D008002080B400AF024B1B681846BD4601
:1007EC0080BC7047D008002080B485B000AF786022
:1007FC007B6803F00703FB600C4BDB68BB60BA68DB
:10080C004FF6FF031340BB60FB681A02BB6813432F
:10081C0043F0BF6343F40033BB60044ABB68D3604E
:10082C0000BF1437BD4680BC704700BF00ED00E030
:10083C0080B400AF044BDB681B0A03F007031846B7
:10084C00BD4680BC704700BF00ED00E080B483B0B3
:10085C0000AF0346FB7197F90730002B0BDBFB79DC
:10086C0003F01F02064997F907305B09012000FAD3
:10087C0002F241F8232000BF0C37BD4680BC704704
:10088C0000E100E080B483B000AF03463960FB7137
:10089C0097F90730002B0ADB3B68DAB20C4997F961
:1008AC0007301201D2B20B4483F800230AE03B68F4
:1008BC00DAB20849FB7903F00F03043B1201D2B200
:1008CC000B441A7600BF0C37BD4680BC704700BF86
:1008DC0000E100E000ED00E080B489B000AFF8600A
:1008EC00B9607A60FB6803F00703FB61FB69C3F135
:1008FC000703042B28BF0423BB61FB690433062BBD
:10090C0002D9FB69033B00E000237B614FF0FF320F
:10091C00BB6902FA03F3DA43BB681A407B699A405D
:10092C004FF0FF317B6901FA03F3D9437B680B402D
:10093C00134318462437BD4680BC704780B582B03F
:10094C0000AF78607B68013BB3F1807F01D301235A
:10095C000FE00A4A7B68013B53600F214FF0FF30D8
:10096C00FFF790FF054B00229A60044B07221A6098
:10097C00002318460837BD4680BD00BF10E000E0DC
:10098C0080B582B000AF78607868FFF72DFF00BFAC
:10099C000837BD4680BD80B586B000AF0346B96050
:1009AC007A60FB7300237B61FFF742FF78617A6802
:1009BC00B9687869FFF790FF024697F90F30114636
:1009CC001846FFF75FFF00BF1837BD4680BD80B5E6
:1009DC0082B000AF0346FB7197F907301846FFF75A
:1009EC0035FF00BF0837BD4680BD80B582B000AF73
:1009FC0078607868FFF7A2FF034618460837BD46B3
:100A0C0080BD000080B485B000AF78600023FB602F
:100A1C007B68002B01D1012343E07B681B681A46DD
:100A2C00224B1344224AA2FB03231B099A007B6826
:100A3C001A647B681F4ADA637B68022283F82120E0
:100A4C007B681B681B68FB60FB6823F47F5323F0F7
:100A5C003003FB607B685A687B689B681A437B6831
:100A6C00DB681A437B681B691A437B685B691A4312
:100A7C007B689B691A437B68DB691343FA681343F1
:100A8C00FB607B681B68FA681A607B6800229A63BB
:100A9C007B68012283F821207B68002283F82020C8
:100AAC00002318461437BD4680BC7047F8FFFDBFC5
:100ABC00CDCCCCCC0000024080B586B000AFF86045
:100ACC00B9607A603B600023FB75FB6893F82030BB
:100ADC00012B01D102234AE0FB68012283F820207C
:100AEC00FB6893F82130012B3AD1FB68022283F882
:100AFC002120FB6800229A63FB681B681A68FB685C
:100B0C001B6822F001021A603B687A68B968F868C1
:100B1C0000F0F3F9FB68DB6A002B08D0FB681B685C
:100B2C001A68FB681B6842F00E021A600FE0FB6843
:100B3C001B681A68FB681B6822F004021A60FB68C9
:100B4C001B681A68FB681B6842F00A021A60FB6893
:100B5C001B681A68FB681B6842F001021A6005E00A
:100B6C00FB68002283F820200223FB75FB7D1846CE
:100B7C001837BD4680BD80B485B000AF78600023C7
:100B8C00FB737B6893F82130022B08D07B6804221E
:100B9C009A637B68002283F82020012320E07B6885
:100BAC001B681A687B681B6822F00E021A607B684F
:100BBC001B681A687B681B6822F001021A607B684C
:100BCC001A6C7B68DB6B012101FA02F25A607B68BC
:100BDC00012283F821207B68002283F82020FB7BF4
:100BEC0018461437BD4680BC7047000080B584B0F1
:100BFC0000AF78600023FB737B6893F82130022BE5
:100C0C0005D07B6804229A630123FB7351E07B6857
:100C1C001B681A687B681B6822F00E021A607B68DE
:100C2C001B681A687B681B6822F001021A607B68DB
:100C3C001B68224A934229D07B681B68204A934246
:100C4C0022D07B681B681F4A93421AD07B681B68B2
:100C5C001D4A934212D07B681B681C4A93420AD0EF
:100C6C007B681B681A4A934202D14FF480130EE042
:100C7C004FF080730BE04FF4803308E04FF4805357
:100C8C0005E04FF4807302E0102300E00123114AC9
:100C9C0053607B68012283F821207B68002283F853
:100CAC0020207B685B6B002B03D07B685B6B7868C8
:100CBC009847FB7B18461037BD4680BD08000240A4
:100CCC001C00024030000240440002405800024028
:100CDC006C0002400000024080B584B000AF786028
:100CEC007B68DB6B1B68FB607B681B681B68BB60ED
:100CFC007B681B6C04229A40FB681340002B4FD07E
:100D0C00BB6803F00403002B4AD07B681B681B688C
:100D1C0003F02003002B07D17B681B681A687B68E3
:100D2C001B6822F004021A607B681B68664A9342B7
:100D3C0029D07B681B68654A934222D07B681B686C
:100D4C00634A93421AD07B681B68624A934212D062
:100D5C007B681B68604A93420AD07B681B685F4AB9
:100D6C00934202D14FF480030EE04FF080630BE00E
:100D7C004FF4802308E04FF4804305E04FF4806388
:100D8C0002E0402300E00423554A53607B68DB6A91
:100D9C00002B00F094807B68DB6A786898478EE0C3
:100DAC007B681B6C02229A40FB681340002B56D0C8
:100DBC00BB6803F00203002B51D07B681B681B68D7
:100DCC0003F02003002B0BD17B681B681A687B682F
:100DDC001B6822F00A021A607B68012283F821202A
:100DEC007B681B68384A934229D07B681B68374A5A
:100DFC00934222D07B681B68354A93421AD07B6899
:100E0C001B68344A934212D07B681B68324A934267
:100E1C000AD07B681B68314A934202D14FF400130D
:100E2C000EE04FF000730BE04FF4003308E04FF48A
:100E3C00005305E04FF4007302E0202300E002238E
:100E4C00274A53607B68002283F820207B689B6ACA
:100E5C00002B34D07B689B6A786898472FE07B68BE
:100E6C001B6C08229A40FB681340002B28D0BB68EF
:100E7C0003F00803002B23D07B681B681A687B687F
:100E8C001B6822F00E021A607B681A6C7B68DB6BA5
:100E9C00012101FA02F25A607B6801229A637B6895
:100EAC00012283F821207B68002283F820207B68B4
:100EBC001B6B002B04D07B681B6B7868984700BFBA
:100ECC0000BF1037BD4680BD080002401C00024028
:100EDC003000024044000240580002406C000240C6
:100EEC000000024080B483B000AF78607B689B6BDD
:100EFC0018460C37BD4680BC704780B485B000AF37
:100F0C00F860B9607A603B60FB681A6CFB68DB6B5D
:100F1C00012101FA02F25A60FB681B683A685A60B8
:100F2C00FB685B68102B08D1FB681B687A689A60B9
:100F3C00FB681B68BA68DA6007E0FB681B68BA6874
:100F4C009A60FB681B687A68DA6000BF1437BD468C
:100F5C0080BC704780B48BB000AF786039600023E0
:100F6C007B6200233B6248E101227B6A02FA03F3B5
:100F7C00FB613B681B68FA691340BB61BA69FB698A
:100F8C009A4240F037813B685B68A34A93425ED03B
:100F9C00A14A934275D8A14A934258D09F4A934292
:100FAC006FD89F4A934252D09D4A934269D89D4A2A
:100FBC0093424CD09B4A934263D89B4A934246D06F
:100FCC00994A93425DD8122B2AD8122B59D801A2D8
:100FDC0052F823F05B100008351000084710000889
:100FEC00891000088F1000088F1000088F1000085F
:100FFC008F1000088F1000088F1000088F10000849
:10100C008F1000088F1000088F1000088F10000838
:10101C008F1000088F1000083D10000851100008B8
:10102C00824A934213D02CE03B68DB683B6229E098
:10103C003B68DB6804333B6224E03B68DB680833C5
:10104C003B621FE03B68DB680C333B621AE03B6899
:10105C009B68002B02D104233B6213E03B689B6826
:10106C00012B05D108233B627B68FA691A6109E000
:10107C0008233B627B68FA695A6103E000233B62F8
:10108C0000E000BFBB69FF2B01D87B6801E07B68E7
:10109C0004337B61BB69FF2B02D87B6A9B0002E0A7
:1010AC007B6A083B9B003B617B691A680F213B699B
:1010BC0001FA03F3DB431A40396A3B6901FA03F383
:1010CC001A437B691A603B685B6803F08053002B02
:1010DC0000F09080564B9B69554A43F00103936195
:1010EC00534B9B6903F00103BB60BB68514A7B6A9D
:1010FC009B08023352F82330FB607B6A03F0030336
:10110C009B000F2202FA03F3DB43FA681340FB60E7
:10111C007B68494A93420DD07B68484A934207D07A
:10112C007B68474A934201D1022304E0032302E087
:10113C00012300E000237A6A02F00302920093403C
:10114C00FA681343FB603B497B6A9B080233FA68DD
:10115C0041F823203B685B6803F48033002B06D0F6
:10116C00384B1A683749BB6913430B6006E0354BA3
:10117C001A68BB69DB43334913400B603B685B68FF
:10118C0003F40033002B06D02E4B5A682D49BB6953
:10119C0013434B6006E02B4B5A68BB69DB43294970
:1011AC0013404B603B685B6803F48013002B06D044
:1011BC00244B9A682349BB6913438B6006E0214B8F
:1011CC009A68BB69DB431F4913408B603B685B68C3
:1011DC0003F40013002B06D01A4BDA681949BB69CB
:1011EC001343CB6006E0174BDA68BB69DB43154948
:1011FC001340CB607B6A01337B623B681A687B6A65
:10120C0022FA03F3002B7FF4AFAE00BF00BF2C37E4
:10121C00BD4680BC704700BF00003210000031108A
:10122C00000022100000211000001210000011100C
:10123C00001002400000014000080140000C014079
:10124C00001001400004014080B483B000AF78600E
:10125C000B467B8013467B707B78002B03D07A88FF
:10126C007B681A6103E07B881A047B681A6100BFF3
:10127C000C37BD4680BC704780B485B000AF786039
:10128C000B467B807B68DB68FB607A88FB681340CD
:10129C001A04FB68D9437B880B401A437B681A619C
:1012AC0000BF1437BD4680BC7047000080B586B0C7
:1012BC0000AF78607B68002B01D101236CE27B6866
:1012CC001B6803F00103002B00F08780924B5B68D6
:1012DC0003F00C03042B0CD08F4B5B6803F00C0356
:1012EC00082B12D18C4B5B6803F48033B3F5803F31
:1012FC000BD1894B1B6803F40033002B6CD07B683B
:10130C005B68002B68D1012346E27B685B68B3F510
:10131C00803F06D1804B1B687F4A43F480331360B7
:10132C002EE07B685B68002B0CD17B4B1B687A4AE8
:10133C0023F480331360784B1B68774A23F48023A3
:10134C0013601DE07B685B68B3F5A02F0CD1724B6A
:10135C001B68714A43F4802313606F4B1B686E4A01
:10136C0043F4803313600BE06B4B1B686A4A23F425
:10137C0080331360684B1B68674A23F48023136027
:10138C007B685B68002B13D0FFF724FA386108E008
:10139C00FFF720FA02463B69D31A642B01D90323C9
:1013AC00FAE15D4B1B6803F40033002BF0D014E022
:1013BC00FFF710FA386108E0FFF70CFA02463B69B8
:1013CC00D31A642B01D90323E6E1534B1B6803F4B6
:1013DC000033002BF0D100E000BF7B681B6803F0EA
:1013EC000203002B63D04C4B5B6803F00C03002B07
:1013FC000BD0494B5B6803F00C03082B1CD1464BFC
:10140C005B6803F48033002B16D1434B1B6803F04D
:10141C000203002B05D07B681B69012B01D0012333
:10142C00BAE13D4B1B6823F0F8027B685B69DB007B
:10143C00394913430B603AE07B681B69002B20D0C1
:10144C00364B01221A60FFF7C5F9386108E0FFF747
:10145C00C1F902463B69D31A022B01D903239BE144
:10146C002D4B1B6803F00203002BF0D02A4B1B689A
:10147C0023F0F8027B685B69DB00274913430B60A0
:10148C0015E0264B00221A60FFF7A4F9386108E03A
:10149C00FFF7A0F902463B69D31A022B01D90323AB
:1014AC007AE11D4B1B6803F00203002BF0D17B6823
:1014BC001B6803F00803002B3AD07B689B69002B58
:1014CC0019D0174B01221A60FFF784F9386108E034
:1014DC00FFF780F902463B69D31A022B01D903238B
:1014EC005AE10D4B5B6A03F00203002BF0D0012094
:1014FC0000F0D8FA1CE00A4B00221A60FFF76AF9D8
:10150C0038610FE0FFF766F902463B69D31A022BEC
:10151C0008D9032340E100BF001002400000424202
:10152C00800442429E4B5B6A03F00203002BE9D11C
:10153C007B681B6803F00403002B00F0A6800023DB
:10154C00FB75974BDB6903F08053002B0DD1944B4B
:10155C00DB69934A43F08053D361914BDB6903F011
:10156C008053BB60BB680123FB758E4B1B6803F477
:10157C008073002B18D18B4B1B688A4A43F4807301
:10158C001360FFF727F9386108E0FFF723F90246EB
:10159C003B69D31A642B01D90323FDE0814B1B68F3
:1015AC0003F48073002BF0D07B68DB68012B06D131
:1015BC007B4B1B6A7A4A43F0010313622DE07B6874
:1015CC00DB68002B0CD1764B1B6A754A23F00103A8
:1015DC001362734B1B6A724A23F0040313621CE000
:1015EC007B68DB68052B0CD16D4B1B6A6C4A43F096
:1015FC00040313626A4B1B6A694A43F001031362CA
:10160C000BE0674B1B6A664A23F001031362644BC1
:10161C001B6A634A23F0040313627B68DB68002BAC
:10162C0015D0FFF7D7F838610AE0FFF7D3F8024678
:10163C003B69D31A41F28832934201D90323ABE0C0
:10164C00574B1B6A03F00203002BEED014E0FFF79C
:10165C00C1F838610AE0FFF7BDF802463B69D31ABE
:10166C0041F28832934201D9032395E04C4B1B6A1B
:10167C0003F00203002BEED1FB7D012B05D1484B6F
:10168C00DB69474A23F08053D3617B68DB69002B0D
:10169C0000F08180424B5B6803F00C03082B61D097
:1016AC007B68DB69022B46D13F4B00221A60FFF7A7
:1016BC0091F8386108E0FFF78DF802463B69D31AC0
:1016CC00022B01D9032367E0354B1B6803F0007331
:1016DC00002BF0D17B681B6AB3F5803F08D1304BEF
:1016EC005B6823F400327B689B682D4913434B6085
:1016FC002B4B5B6823F474127B68196A7B685B6AFA
:10170C000B43274913434B60274B01221A60FFF709
:10171C0061F8386108E0FFF75DF802463B69D31ABF
:10172C00022B01D9032337E01D4B1B6803F0007318
:10173C00002BF0D02FE01C4B00221A60FFF74AF868
:10174C00386108E0FFF746F802463B69D31A022BD2
:10175C0001D9032320E0124B1B6803F00073002B0C
:10176C00F0D118E07B68DB69012B01D1012313E078
:10177C000B4B5B68FB60FB6803F480327B681B6A75
:10178C009A4206D1FB6803F470127B685B6A9A423A
:10179C0001D0012300E0002318461837BD4680BD58
:1017AC0000100240007000406000424280B584B0DE
:1017BC0000AF786039607B68002B01D10123D0E049
:1017CC006A4B1B6803F007033A689A4210D9674BBF
:1017DC001B6823F0070265493B6813430B60634B9E
:1017EC001B6803F007033A689A4201D00123B8E062
:1017FC007B681B6803F00203002B20D07B681B68FE
:10180C0003F00403002B05D0594B5B68584A43F492
:10181C00E06353607B681B6803F00803002B05D062
:10182C00534B5B68524A43F460535360504B5B68B4
:10183C0023F0F0027B689B684D4913434B607B6837
:10184C001B6803F00103002B40D07B685B68012B05
:10185C0007D1474B1B6803F40033002B15D1012330
:10186C007FE07B685B68022B07D1414B1B6803F060
:10187C000073002B09D1012373E03D4B1B6803F06F
:10188C000203002B01D101236BE0394B5B6823F081
:10189C0003027B685B68364913434B60FEF79AFF83
:1018AC00F8600AE0FEF796FF0246FB68D31A41F295
:1018BC008832934201D9032353E02D4B5B6803F02C
:1018CC000C027B685B689B009A42EBD1274B1B6830
:1018DC0003F007033A689A4210D2244B1B6823F09A
:1018EC00070222493B6813430B60204B1B6803F033
:1018FC0007033A689A4201D0012332E07B681B68E7
:10190C0003F00403002B08D0194B5B6823F4E0624E
:10191C007B68DB68164913434B607B681B6803F0DC
:10192C000803002B09D0124B5B6823F460527B68D0
:10193C001B69DB000E4913434B6000F021F8024693
:10194C000B4B5B681B0903F00F030A49CB5C22FAB3
:10195C0003F3094A1360094B1B681846FEF7F8FE9F
:10196C00002318461037BD4680BD00BF0020024042
:10197C00001002401C290008000000200400002078
:10198C0090B48AB000AF2A4B3C1D0FCB84E80F00FB
:10199C0040F201233B800023FB610023BB61002349
:1019AC007B6200237B6100233B62224B5B68FB6103
:1019BC00FB6903F00C03042B02D0082B03D02DE0A1
:1019CC001D4B3B622DE0FB699B0C03F00F0307F1F1
:1019DC002802134413F8243C7B61FB6903F4803325
:1019EC00002B13D0134B5B685B0C03F0010307F166
:1019FC002802134413F8283CBB617B690E4A02FB96
:101A0C0003F2BB69B2FBF3F37B6204E07B690B4A24
:101A1C0002FB03F37B627B6A3B6202E0064B3B6298
:101A2C0000BF3B6A18462837BD4690BC704700BFC4
:101A3C000C2900080010024000127A0000093D0039
:101A4C0080B400AF024B1B681846BD4680BC704783
:101A5C000000002080B500AFFFF7F2FF0246054BF7
:101A6C005B681B0A03F007030349CB5C22FA03F300
:101A7C00184680BD001002402C29000880B500AF2C
:101A8C00FFF7DEFF0246054B5B68DB0A03F007033A
:101A9C000349CB5C22FA03F3184680BD00100240C8
:101AAC002C29000880B485B000AF78600A4B1B6805
:101ABC000A4AA2FB03235B0A7A6802FB03F3FB606E
:101ACC0000BFFB685A1EFA60002BF9D100BF00BFA3
:101ADC001437BD4680BC704700000020D34D621007
:101AEC0080B582B000AF78607B68002B01D10123F8
:101AFC003FE07B6893F83D30DBB2002B06D17B686E
:101B0C00002283F83C207868FEF7FAFC7B682422DC
:101B1C0083F83D207B681B68DA687B681B6822F4BD
:101B2C000052DA60786800F0FFFD7B681B681A6968
:101B3C007B681B6822F490421A617B681B685A69A7
:101B4C007B681B6822F02A025A617B681B68DA6882
:101B5C007B681B6842F40052DA607B6800221A64CE
:101B6C007B68202283F83D207B68202283F83E206E
:101B7C00002318460837BD4680BD80B58AB002AF39
:101B8C00F860B9603B601346FB8000237B61FB6807
:101B9C0093F83D30DBB2202B7CD1BB68002B02D0FC
:101BAC00FB88002B01D1012375E0FB6893F83C30D6
:101BBC00012B01D102236EE0FB68012283F83C204B
:101BCC00FB6800221A64FB68212283F83D20FEF793
:101BDC0001FE7861FB68FA889A84FB68FA88DA84DB
:101BEC00FB689B68B3F5805F08D1FB681B69002B11
:101BFC0004D10023FB61BB68BB6103E0BB68FB61E4
:101C0C000023BB61FB68002283F83C202AE03B6880
:101C1C0000937B6900228021F86800F070FB03467A
:101C2C00002B01D0032336E0FB69002B0BD1BB69E1
:101C3C001B881A46FB681B68C2F308025A60BB6912
:101C4C000233BB6107E0FB691A78FB681B685A60BA
:101C5C00FB690133FB61FB68DB8C9BB2013B9AB2E5
:101C6C00FB68DA84FB68DB8C9BB2002BCFD13B6822
:101C7C0000937B6900224021F86800F040FB03468A
:101C8C00002B01D0032306E0FB68202283F83D20C3
:101C9C00002300E0022318462037BD4680BD80B4E7
:101CAC0085B000AFF860B9601346FB80FB6893F811
:101CBC003D30DBB2202B30D1BB68002B02D0FB882F
:101CCC00002B01D1012329E0FB6893F83C30012B58
:101CDC0001D1022322E0FB68012283F83C20FB683F
:101CEC00BA681A62FB68FA889A84FB68FA88DA8404
:101CFC00FB6800221A64FB68212283F83D20FB68F4
:101D0C00002283F83C20FB681B68DA68FB681B68C0
:101D1C0042F08002DA60002300E0022318461437F8
:101D2C00BD4680BC704780B584B000AFF860B96028
:101D3C001346FB80FB6893F83E30DBB2202B1DD1A1
:101D4C00BB68002B02D0FB88002B01D1012316E0CD
:101D5C00FB6893F83C30012B01D102230FE0FB68A8
:101D6C00012283F83C20FB6800221A63FB881A4688
:101D7C00B968F86800F00EFB034600E00223184631
:101D8C001037BD4680BD80B582B000AF78607B68EF
:101D9C001B68DA687B681B6822F0C002DA607B681B
:101DAC001B685B6903F08003002B24D07B681B68E5
:101DBC005A697B681B6822F080025A617B685B6BF6
:101DCC00002B18D07B685B6B00225A637B685B6BC3
:101DDC001846FEF7D0FE0346002B0CD07B685B6BDD
:101DEC001846FFF77FF80346202B04D17B6810229E
:101DFC001A64032307E07B680022DA847B682022C4
:101E0C0083F83D20002318460837BD4680BD0000EE
:101E1C0080B58AB000AF78607B681B681B687B62FA
:101E2C007B681B68DB683B627B681B685B69FB61DA
:101E3C000023BB6100237B617B6A03F00F03BB6152
:101E4C00BB69002B0DD17B6A03F02003002B08D05B
:101E5C003B6A03F02003002B03D0786800F0BAFB38
:101E6C007BE1BB69002B00F0B180FB6903F001033F
:101E7C00002B05D13B6A03F49073002B00F0A68075
:101E8C007B6A03F00103002B0AD03B6A03F48073D6
:101E9C00002B05D07B681B6C43F001027B681A6435
:101EAC007B6A03F00403002B0AD0FB6903F00103E7
:101EBC00002B05D07B681B6C43F002027B681A6414
:101ECC007B6A03F00203002B0AD0FB6903F00103C9
:101EDC00002B05D07B681B6C43F004027B681A64F2
:101EEC007B6A03F00803002B0FD03B6A03F020033E
:101EFC00002B04D1FB6903F00103002B05D07B6898
:101F0C001B6C43F008027B681A647B681B6C002B0B
:101F1C0000F01E817B6A03F02003002B07D03B6A84
:101F2C0003F02003002B02D0786800F053FB7B6891
:101F3C001B685B6903F04003002B14BF01230023D3
:101F4C00DBB27B617B681B6C03F00803002B02D1B6
:101F5C007B69002B31D0786800F095FA7B681B68A0
:101F6C005B6903F04003002B23D07B681B685A6924
:101F7C007B681B6822F040025A617B689B6B002BCC
:101F8C0013D07B689B6B764A5A637B689B6B1846B5
:101F9C00FEF72CFE0346002B16D07B689B6B5B6B0D
:101FAC007A68926B104698470EE0786800F0E3F878
:101FBC000AE0786800F0DFF806E0786800F0DBF8FB
:101FCC007B6800221A64C3E000BFC1E07B681B6B16
:101FDC00012B40F0A1807B6A03F01003002B00F072
:101FEC009B803B6A03F01003002B00F095800023CC
:101FFC00FB607B681B681B68FB607B681B685B680D
:10200C00FB60FB687B681B685B6903F04003002B7B
:10201C004ED07B689B6B1B685B683B823B8A002BBA
:10202C0000F098807B689B8D3A8A9A4280F092806F
:10203C007B683A8ADA857B689B6B9B69202B2BD05B
:10204C007B681B68DA687B681B6822F48072DA6034
:10205C007B681B685A697B681B6822F001025A6115
:10206C007B681B685A697B681B6822F040025A61C6
:10207C007B68202283F83E207B6800221A637B68F1
:10208C001B68DA687B681B6822F01002DA607B68D8
:10209C009B6B1846FEF76FFD7B689A8D7B68DB8D1A
:1020AC009BB2D31A9BB21946786800F06DF851E0D8
:1020BC007B689A8D7B68DB8D9BB2D31A7B827B68A5
:1020CC00DB8D9BB2002B47D07B8A002B44D07B68E6
:1020DC001B68DA687B681B6822F49072DA607B6894
:1020EC001B685A697B681B6822F001025A617B6885
:1020FC00202283F83E207B6800221A637B681B68D1
:10210C00DA687B681B6822F01002DA607B8A194659
:10211C00786800F039F81FE07B6A03F08003002B2D
:10212C0008D03B6A03F08003002B03D0786800F0E2
:10213C00EAF912E07B6A03F04003002B0DD03B6AF6
:10214C0003F04003002B08D0786800F02BFA04E071
:10215C0000BF02E000BF00E000BF2837BD4680BDD5
:10216C00EB24000880B483B000AF786000BF0C375C
:10217C00BD4680BC704780B483B000AF786000BFB0
:10218C000C37BD4680BC704780B483B000AF78601C
:10219C000B467B8000BF0C37BD4680BC704780B5BA
:1021AC0084B000AF78607B685B6AFB607B681B68FF
:1021BC001B6803F02003002B2AD1FB680022DA8570
:1021CC00FB681B68DA68FB681B6822F48072DA60B3
:1021DC00FB681B685A69FB681B6822F001025A6194
:1021EC00FB681B685A69FB681B6822F040025A6145
:1021FC00FB68202283F83E20FB681B6B012B07D168
:10220C00FB681B68DA68FB681B6822F01002DA6056
:10221C00FB681B6B012B06D1FB689B8D1946F8687C
:10222C00FFF7B2FF02E0F868FEF79CF800BF10372A
:10223C00BD4680BD80B584B000AF78607B685B6ABA
:10224C00FB60FB681B6B012B08D1FB689B8D5B084B
:10225C009BB21946F868FFF797FF02E0F868FFF7A2
:10226C0081FF00BF1037BD4680BD80B584B000AF84
:10227C0078600023FB607B685B6ABB60BB681B6893
:10228C005B6903F08003002B14BF01230023DBB236
:10229C00FB60BB6893F83D30DBB2212B08D1FB68A7
:1022AC00002B05D0BB680022DA84B86800F0D6F8A1
:1022BC00BB681B685B6903F04003002B14BF012350
:1022CC000023DBB2FB60BB6893F83E30DBB2222B01
:1022DC0008D1FB68002B05D0BB680022DA85B868F2
:1022EC0000F0D1F8BB681B6C43F01002BB681A6499
:1022FC00B868FFF740FF00BF1037BD4680BD80B502
:10230C0084B000AFF860B9603B601346FB712CE001
:10231C00BB69B3F1FF3F28D0BB69002B07D0FEF798
:10232C0059FA02463B68D31ABA699A421DD2FB6825
:10233C001B68DA68FB681B6822F4D072DA60FB68F1
:10234C001B685A69FB681B6822F001025A61FB6822
:10235C00202283F83D20FB68202283F83E20FB6876
:10236C00002283F83C2003230FE0FB681B681A68EB
:10237C00BB681340BA689A420CBF01230023DBB23E
:10238C001A46FB799A42C3D0002318461037BD4633
:10239C0080BD000080B586B000AFF860B960134610
:1023AC00FB80BA68FB689A62FB68FA889A85FB68BE
:1023BC0000221A64FB68222283F83E20FB689B6B88
:1023CC00234A9A62FB689B6B224ADA62FB689B6B1E
:1023DC00214A1A63FB689B6B00225A6307F10803BE
:1023EC007B61FB68986BFB681B68043319467B693F
:1023FC001A68FB88FEF760FB00233B61FB681B68D7
:10240C001B683B61FB681B685B683B613B69FB6855
:10241C00002283F83C20FB681B68DA68FB681B68A9
:10242C0042F48072DA60FB681B685A69FB681B68AF
:10243C0042F001025A61FB681B685A69FB681B6811
:10244C0042F040025A61002318461837BD4680BD41
:10245C00AB210008412200087722000880B483B029
:10246C0000AF78607B681B68DA687B681B6822F0B9
:10247C00C002DA607B68202283F83D2000BF0C3755
:10248C00BD4680BC704780B483B000AF78607B6879
:10249C001B68DA687B681B6822F49072DA607B68D0
:1024AC001B685A697B681B6822F001025A617B68C1
:1024BC001B6B012B07D17B681B68DA687B681B6878
:1024CC0022F01002DA607B68202283F83E207B68C1
:1024DC0000221A6300BF0C37BD4680BC704780B524
:1024EC0084B000AF78607B685B6AFB60FB6800229D
:1024FC00DA85FB680022DA84F868FFF73CFE00BF3F
:10250C001037BD4680BD80B485B000AF78607B6865
:10251C0093F83D30DBB2212B3ED17B689B68B3F541
:10252C00805F14D17B681B69002B10D17B681B6A00
:10253C00FB60FB681B881A467B681B68C2F30802A9
:10254C005A607B681B6A9A1C7B681A6208E07B687D
:10255C001B6A591C7A6811621A787B681B685A606E
:10256C007B68DB8C9BB2013B9BB27A681946D184A9
:10257C00002B0FD17B681B68DA687B681B6822F024
:10258C008002DA607B681B68DA687B681B6842F043
:10259C004002DA60002300E0022318461437BD46DF
:1025AC0080BC704780B582B000AF78607B681B68D8
:1025BC00DA687B681B6822F04002DA607B682022B4
:1025CC0083F83D207868FDF725FF0023184608376F
:1025DC00BD4680BD80B586B000AF78607B6893F84F
:1025EC003E30DBB2222B40F099807B689B68B3F5C0
:1025FC00805F17D17B681B69002B13D100237B6193
:10260C007B689B6A3B617B681B685B689BB2C3F30E
:10261C0008039AB23B691A807B689B6A9A1C7B6898
:10262C009A6226E07B689B6A7B6100233B617B6836
:10263C009B68B3F5805F07D07B689B68002B0AD141
:10264C007B681B69002B06D17B681B685B68DAB260
:10265C007B691A7008E07B681B685B68DBB203F06F
:10266C007F03DAB27B691A707B689B6A5A1C7B68A1
:10267C009A627B68DB8D9BB2013B9BB27A681946F0
:10268C00D185002B48D17B681B68DA687B681B6896
:10269C0022F02002DA607B681B68DA687B681B68B2
:1026AC0022F48072DA607B681B685A697B681B684D
:1026BC0022F001025A617B68202283F83E207B685D
:1026CC001B6B012B23D17B6800221A637B681B6870
:1026DC00DA687B681B6822F01002DA607B681B6882
:1026EC001B6803F01003102B0AD10023FB607B68DE
:1026FC001B681B68FB607B681B685B68FB60FB6886
:10270C007B689B8D19467868FFF73EFD02E0786880
:10271C00FDF728FE002302E0002300E00223184608
:10272C001837BD4680BD000080B584B000AF78601E
:10273C007B681B681B6923F440517B68DA687B68F3
:10274C001B680A431A617B689A687B681B691A4389
:10275C007B685B691343BB607B681B68DB6823F495
:10276C00B05323F00C037A681268B9680B43D3603A
:10277C007B681B685B6923F440717B689A697B6892
:10278C001B680A435A617B681B682C4A934203D12D
:10279C00FFF774F9F86002E0FFF75CF9F860FA688B
:1027AC0013469B0013449A001A447B685B689B0099
:1027BC00B2FBF3F3224AA2FB03235B091901FA686B
:1027CC0013469B0013449A001A447B685B689B0079
:1027DC00B2FBF3F21A4BA3FB02035B09642000FB70
:1027EC0003F3D31A1B013233154AA2FB03235B09F3
:1027FC0003F0F0031944FA6813469B0013449A0043
:10280C001A447B685B689B00B2FBF3F20C4BA3FB96
:10281C0002035B09642000FB03F3D31A1B01323360
:10282C00074AA2FB03235B0903F00F027B681B68BA
:10283C000A449A6000BF1037BD4680BD0038014085
:10284C001F85EB5170B500260C4D0D4C641BA4106C
:10285C00A64209D100F022F800260A4D0A4C641B4E
:10286C00A410A64205D170BD55F8043B984701361B
:10287C00EEE755F8043B98470136F2E73429000897
:10288C00342900083429000838290008034602447A
:10289C00934200D1704703F8011BF9E7F8B500BF6C
:1028AC00F8BC08BC9E467047F8B500BFF8BC08BC25
:0428BC009E4670477D
:1028C00057656C636F6D650A0D09507265737320EF
:1028D00030206F7220310A0D000000000A0D000048
:1028E0000A0D53746F700A0D000000000A0D537436
:1028F0006172740A0D0000000A0D50726573732036
:1029000030206F7220310A0D000000000203040520
:10291000060708090A0B0C0D0E0F1010000000002E
:10292000000000000102030406070809000000007F
:042930000102030499
:042934003101000865
:042938000D01000885
:0C293C000024F400100000000100000066
:04000005080006E504
:00000001FF
