:020000040800F2
:1000000000280020890400082D040008330400089B
:10001000390400083F0400084504000800000000FF
:100020000000000000000000000000004B04000879
:100030005704000800000000630400086F04000873
:10004000D1040008D1040008D1040008D10400083C
:10005000D1040008D1040008D1040008D10400082C
:10006000D1040008D1040008D1040008D10400081C
:10007000D1040008D1040008D1040008D10400080C
:10008000D1040008D1040008D1040008D1040008FC
:10009000D1040008D1040008D1040008D1040008EC
:1000A000D1040008D1040008D1040008D1040008DC
:1000B000D1040008D104000800000000D1040008A9
:1000C000D10400080000000000000000D104000876
:1000D00000000000D1040008D10400080000000066
:1000E000D1040008D1040008D10400080000000079
:1000F0000000000000000000000000000000000000
:0C01000000000000000000005FF808F1A3
:10010C0010B5054C237833B9044B13B10448AFF345
:10011C0000800123237010BD0C00002000000000A3
:10012C00841D000808B5034B1BB103490348AFF30A
:10013C00008008BD0000000010000020841D000895
:10014C0080B500AF00F0C0F900F036F800F0A8F868
:10015C0000F06EF801220221144800F075FC012217
:10016C000421124800F070FC002202210F4800F01C
:10017C006BFC012202210D4800F066FC6423012275
:10018C000B490C4801F020FA00220421074800F02A
:10019C005BFC642301220649064801F0D9F80122D0
:1001AC000421024800F050FCDEE700BF000C0140C7
:1001BC00280000202C00002080B590B000AF07F183
:1001CC00180328220021184601F0CEFD3B1D002209
:1001DC001A605A609A60DA601A610223BB610123CB
:1001EC00BB621023FB6200237B6307F118031846E4
:1001FC0000F042FC0346002B01D000F08FF80F23D7
:10020C007B600023BB600023FB6000233B61002369
:10021C007B613B1D0021184600F0AEFE0346002B0F
:10022C0001D000F07BF800BF4037BD4680BD000018
:10023C0080B500AF184B194A1A60174B4FF48272F5
:10024C005A60154B00229A60134B4FF40062DA602F
:10025C00114B00221A61104B00225A610E4B4FF4C5
:10026C0000729A610C4B0022DA610B4B00221A626D
:10027C00094B00225A62084B00229A62064B0A2252
:10028C00DA62054800F0E0FF0346002B01D000F0D5
:10029C0045F800BF80BD00BF2C000020003001409D
:1002AC0080B586B000AF07F1080300221A605A60CF
:1002BC009A60DA60174B9B69164A43F0040393610A
:1002CC00144B9B6903F004037B607B68114B9B69A7
:1002DC00104A43F0080393610E4B9B6903F008032B
:1002EC003B603B68002206210B4800F0ADFB062367
:1002FC00BB600123FB6000233B6102237B6107F1A0
:10030C0008031946044800F025FA00BF1837BD460B
:10031C0080BD00BF00100240000C014080B400AF53
:10032C0072B600BFFEE7000080B485B000AF154B7D
:10033C009B69144A43F001039361124B9B6903F0D0
:10034C000103BB60BB680F4BDB690E4A43F0805363
:10035C00D3610C4BDB6903F080537B607B680A4BE9
:10036C005B68FB60FB6823F0E063FB60FB6843F0B9
:10037C008063FB60044AFB68536000BF1437BD46C2
:10038C0080BC7047001002400000014080B588B06E
:10039C0000AF786007F1100300221A605A609A606F
:1003AC00DA607B681B681B4A93422FD11A4B9B69FE
:1003BC00194A43F480539361174B9B6903F48053A0
:1003CC00FB60FB68144B9B69134A43F00403936175
:1003DC00114B9B6903F00403BB60BB68A0233B611A
:1003EC0002237B610323FB6107F1100319460B48C1
:1003FC0000F0B0F940233B6100237B610023BB611B
:10040C0007F110031946054800F0A4F900BF203786
:10041C00BD4680BD00300140001002400008014084
:10042C0080B400AFFEE780B400AFFEE780B400AF4D
:10043C00FEE780B400AFFEE780B400AFFEE780B407
:10044C0000AF00BFBD4680BC704780B400AF00BF9A
:10045C00BD4680BC704780B400AF00BFBD4680BCB9
:10046C00704780B500AF00F075F800BF80BD80B458
:10047C0000AF00BFBD4680BC704700000C480D4962
:10048C000D4A002302E0D458C4500433C4188C42E3
:10049C00F9D30A4A0A4C002301E013600432A24249
:1004AC00FBD3FFF7E4FF01F03BFCFFF749FE70477D
:1004BC00000000200C000020C41D00080C000020CF
:1004CC0088000020FEE7000080B500AF084B1B68D9
:1004DC00074A43F010031360032000F007F90F20C4
:1004EC0000F008F8FFF720FF0023184680BD00BF7E
:1004FC000020024080B582B000AF7860124B1A68C1
:10050C00124B1B7819464FF47A73B3FBF1F3B2FB21
:10051C00F3F3184600F011F90346002B01D0012328
:10052C000EE07B680F2B0AD8002279684FF0FF3061
:10053C0000F0E7F8064A7B681360002300E0012313
:10054C0018460837BD4680BD00000020080000207A
:10055C000400002080B400AF054B1B781A46054BF5
:10056C001B681344034A136000BFBD4680BC704730
:10057C00080000208400002080B400AF024B1B68F0
:10058C001846BD4680BC70478400002080B485B0FE
:10059C0000AF78607B6803F00703FB600C4BDB68F3
:1005AC00BB60BA684FF6FF031340BB60FB681A02CE
:1005BC00BB68134343F0BF6343F40033BB60044A8E
:1005CC00BB68D36000BF1437BD4680BC704700BF0A
:1005DC0000ED00E080B400AF044BDB681B0A03F0B5
:1005EC0007031846BD4680BC704700BF00ED00E015
:1005FC0080B483B000AF03463960FB7197F90730C4
:10060C00002B0ADB3B68DAB20C4997F90730120170
:10061C00D2B20B4483F800230AE03B68DAB20849F3
:10062C00FB7903F00F03043B1201D2B20B441A7690
:10063C0000BF0C37BD4680BC704700BF00E100E036
:10064C0000ED00E080B489B000AFF860B9607A606A
:10065C00FB6803F00703FB61FB69C3F10703042B81
:10066C0028BF0423BB61FB690433062B02D9FB6949
:10067C00033B00E000237B614FF0FF32BB6902FAC1
:10068C0003F3DA43BB681A407B699A404FF0FF31A1
:10069C007B6901FA03F3D9437B680B40134318467B
:1006AC002437BD4680BC704780B582B000AF7860FF
:1006BC007B68013BB3F1807F01D301230FE00A4A31
:1006CC007B68013B53600F214FF0FF30FFF790FF29
:1006DC00054B00229A60044B07221A60002318462F
:1006EC000837BD4680BD00BF10E000E080B582B089
:1006FC0000AF78607868FFF749FF00BF0837BD4648
:10070C0080BD80B586B000AF0346B9607A60FB73DC
:10071C0000237B61FFF75EFF78617A68B9687869BE
:10072C00FFF790FF024697F90F3011461846FFF776
:10073C005FFF00BF1837BD4680BD80B582B000AFEB
:10074C0078607868FFF7B0FF034618460837BD4657
:10075C0080BD000080B48BB000AF7860396000239E
:10076C007B6200233B6248E101227B6A02FA03F3BD
:10077C00FB613B681B68FA691340BB61BA69FB6992
:10078C009A4240F037813B685B68A34A93425ED043
:10079C00A14A934275D8A14A934258D09F4A93429A
:1007AC006FD89F4A934252D09D4A934269D89D4A32
:1007BC0093424CD09B4A934263D89B4A934246D077
:1007CC00994A93425DD8122B2AD8122B59D801A2E0
:1007DC0052F823F05B0800083508000847080008A9
:1007EC00890800088F0800088F0800088F08000887
:1007FC008F0800088F0800088F0800088F08000871
:10080C008F0800088F0800088F0800088F08000860
:10081C008F0800088F0800083D08000851080008E0
:10082C00824A934213D02CE03B68DB683B6229E0A0
:10083C003B68DB6804333B6224E03B68DB680833CD
:10084C003B621FE03B68DB680C333B621AE03B68A1
:10085C009B68002B02D104233B6213E03B689B682E
:10086C00012B05D108233B627B68FA691A6109E008
:10087C0008233B627B68FA695A6103E000233B6200
:10088C0000E000BFBB69FF2B01D87B6801E07B68EF
:10089C0004337B61BB69FF2B02D87B6A9B0002E0AF
:1008AC007B6A083B9B003B617B691A680F213B69A3
:1008BC0001FA03F3DB431A40396A3B6901FA03F38B
:1008CC001A437B691A603B685B6803F08053002B0A
:1008DC0000F09080564B9B69554A43F0010393619D
:1008EC00534B9B6903F00103BB60BB68514A7B6AA5
:1008FC009B08023352F82330FB607B6A03F003033E
:10090C009B000F2202FA03F3DB43FA681340FB60EF
:10091C007B68494A93420DD07B68484A934207D082
:10092C007B68474A934201D1022304E0032302E08F
:10093C00012300E000237A6A02F003029200934044
:10094C00FA681343FB603B497B6A9B080233FA68E5
:10095C0041F823203B685B6803F48033002B06D0FE
:10096C00384B1A683749BB6913430B6006E0354BAB
:10097C001A68BB69DB43334913400B603B685B6807
:10098C0003F40033002B06D02E4B5A682D49BB695B
:10099C0013434B6006E02B4B5A68BB69DB43294978
:1009AC0013404B603B685B6803F48013002B06D04C
:1009BC00244B9A682349BB6913438B6006E0214B97
:1009CC009A68BB69DB431F4913408B603B685B68CB
:1009DC0003F40013002B06D01A4BDA681949BB69D3
:1009EC001343CB6006E0174BDA68BB69DB43154950
:1009FC001340CB607B6A01337B623B681A687B6A6D
:100A0C0022FA03F3002B7FF4AFAE00BF00BF2C37EC
:100A1C00BD4680BC704700BF000032100000311092
:100A2C000000221000002110000012100000111014
:100A3C00001002400000014000080140000C014081
:100A4C00001001400004014080B483B000AF786016
:100A5C000B467B8013467B707B78002B03D07A8807
:100A6C007B681A6103E07B881A047B681A6100BFFB
:100A7C000C37BD4680BC704780B586B000AF78603F
:100A8C007B68002B01D101236CE27B681B6803F0AF
:100A9C000103002B00F08780924B5B6803F00C0382
:100AAC00042B0CD08F4B5B6803F00C03082B12D17A
:100ABC008C4B5B6803F48033B3F5803F0BD1894BCF
:100ACC001B6803F40033002B6CD07B685B68002B35
:100ADC0068D1012346E27B685B68B3F5803F06D1A1
:100AEC00804B1B687F4A43F4803313602EE07B6895
:100AFC005B68002B0CD17B4B1B687A4A23F4803348
:100B0C001360784B1B68774A23F4802313601DE035
:100B1C007B685B68B3F5A02F0CD1724B1B68714AD4
:100B2C0043F4802313606F4B1B686E4A43F480338D
:100B3C0013600BE06B4B1B686A4A23F48033136021
:100B4C00684B1B68674A23F4802313607B685B68DF
:100B5C00002B13D0FFF710FD386108E0FFF70CFDF8
:100B6C0002463B69D31A642B01D90323FAE15D4B8E
:100B7C001B6803F40033002BF0D014E0FFF7FCFCEF
:100B8C00386108E0FFF7F8FC02463B69D31A642B86
:100B9C0001D90323E6E1534B1B6803F40033002B0C
:100BAC00F0D100E000BF7B681B6803F00203002B50
:100BBC0063D04C4B5B6803F00C03002B0BD0494B00
:100BCC005B6803F00C03082B1CD1464B5B6803F4E9
:100BDC008033002B16D1434B1B6803F00203002B10
:100BEC0005D07B681B69012B01D00123BAE13D4B79
:100BFC001B6823F0F8027B685B69DB0039491343FF
:100C0C000B603AE07B681B69002B20D0364B01222D
:100C1C001A60FFF7B1FC386108E0FFF7ADFC024643
:100C2C003B69D31A022B01D903239BE12D4B1B6883
:100C3C0003F00203002BF0D02A4B1B6823F0F802C0
:100C4C007B685B69DB00274913430B6015E0264B7F
:100C5C0000221A60FFF790FC386108E0FFF78CFC6B
:100C6C0002463B69D31A022B01D903237AE11D4BAF
:100C7C001B6803F00203002BF0D17B681B6803F0A8
:100C8C000803002B3AD07B689B69002B19D0174BBB
:100C9C0001221A60FFF770FC386108E0FFF76CFC6A
:100CAC0002463B69D31A022B01D903235AE10D4B9F
:100CBC005B6A03F00203002BF0D0012000F0A6FACF
:100CCC001CE00A4B00221A60FFF756FC38610FE05B
:100CDC00FFF752FC02463B69D31A022B08D90323B7
:100CEC0040E100BF0010024000004242800442423A
:100CFC009E4B5B6A03F00203002BE9D17B681B68F7
:100D0C0003F00403002B00F0A6800023FB75974B27
:100D1C00DB6903F08053002B0DD1944BDB69934AB4
:100D2C0043F08053D361914BDB6903F08053BB607C
:100D3C00BB680123FB758E4B1B6803F48073002B7F
:100D4C0018D18B4B1B688A4A43F480731360FFF7EE
:100D5C0013FC386108E0FFF70FFC02463B69D31A1D
:100D6C00642B01D90323FDE0814B1B6803F48073D2
:100D7C00002BF0D07B68DB68012B06D17B4B1B6A08
:100D8C007A4A43F0010313622DE07B68DB68002B89
:100D9C000CD1764B1B6A754A23F001031362734B1B
:100DAC001B6A724A23F0040313621CE07B68DB6845
:100DBC00052B0CD16D4B1B6A6C4A43F00403136278
:100DCC006A4B1B6A694A43F0010313620BE0674BE1
:100DDC001B6A664A23F001031362644B1B6A634A65
:100DEC0023F0040313627B68DB68002B15D0FFF73C
:100DFC00C3FB38610AE0FFF7BFFB02463B69D31A1D
:100E0C0041F28832934201D90323ABE0574B1B6A62
:100E1C0003F00203002BEED014E0FFF7ADFB3861BA
:100E2C000AE0FFF7A9FB02463B69D31A41F288326C
:100E3C00934201D9032395E04C4B1B6A03F0020348
:100E4C00002BEED1FB7D012B05D1484BDB69474ACA
:100E5C0023F08053D3617B68DB69002B00F0818029
:100E6C00424B5B6803F00C03082B61D07B68DB6999
:100E7C00022B46D13F4B00221A60FFF77DFB3861F5
:100E8C0008E0FFF779FB02463B69D31A022B01D924
:100E9C00032367E0354B1B6803F00073002BF0D184
:100EAC007B681B6AB3F5803F08D1304B5B6823F439
:100EBC0000327B689B682D4913434B602B4B5B685E
:100ECC0023F474127B68196A7B685B6A0B432749AD
:100EDC0013434B60274B01221A60FFF74DFB38611F
:100EEC0008E0FFF749FB02463B69D31A022B01D9F4
:100EFC00032337E01D4B1B6803F00073002BF0D06D
:100F0C002FE01C4B00221A60FFF736FB386108E01B
:100F1C00FFF732FB02463B69D31A022B01D903239C
:100F2C0020E0124B1B6803F00073002BF0D118E08B
:100F3C007B68DB69012B01D1012313E00B4B5B6850
:100F4C00FB60FB6803F480327B681B6A9A4206D113
:100F5C00FB6803F470127B685B6A9A4201D0012330
:100F6C0000E0002318461837BD4680BD0010024033
:100F7C00007000406000424280B584B000AF7860E1
:100F8C0039607B68002B01D10123D0E06A4B1B68D0
:100F9C0003F007033A689A4210D9674B1B6823F099
:100FAC00070265493B6813430B60634B1B6803F0F6
:100FBC0007033A689A4201D00123B8E07B681B68AA
:100FCC0003F00203002B20D07B681B6803F00403A2
:100FDC00002B05D0594B5B68584A43F4E0635360CF
:100FEC007B681B6803F00803002B05D0534B5B6830
:100FFC00524A43F460535360504B5B6823F0F00249
:10100C007B689B684D4913434B607B681B6803F0FE
:10101C000103002B40D07B685B68012B07D1474B49
:10102C001B6803F40033002B15D101237FE07B6890
:10103C005B68022B07D1414B1B6803F00073002B3C
:10104C0009D1012373E03D4B1B6803F00203002B15
:10105C0001D101236BE0394B5B6823F003027B6801
:10106C005B68364913434B60FFF786FAF8600AE079
:10107C00FFF782FA0246FB68D31A41F28832934298
:10108C0001D9032353E02D4B5B6803F00C027B6802
:10109C005B689B009A42EBD1274B1B6803F007035C
:1010AC003A689A4210D2244B1B6823F0070222495B
:1010BC003B6813430B60204B1B6803F007033A6833
:1010CC009A4201D0012332E07B681B6803F00403D1
:1010DC00002B08D0194B5B6823F4E0627B68DB685B
:1010EC00164913434B607B681B6803F00803002B05
:1010FC0009D0124B5B6823F460527B681B69DB00E0
:10110C000E4913434B6000F021F802460B4B5B6811
:10111C001B0903F00F030A49CB5C22FA03F3094ABB
:10112C001360094B1B681846FFF7E4F900231846B7
:10113C001037BD4680BD00BF0020024000100240A9
:10114C00AC1D0008000000200400002090B48AB000
:10115C0000AF2A4B3C1D0FCB84E80F0040F201235B
:10116C003B800023FB610023BB6100237B620023D7
:10117C007B6100233B62224B5B68FB61FB6903F0E4
:10118C000C03042B02D0082B03D02DE01D4B3B622B
:10119C002DE0FB699B0C03F00F0307F128021344AD
:1011AC0013F8243C7B61FB6903F48033002B13D0D0
:1011BC00134B5B685B0C03F0010307F1280213442B
:1011CC0013F8283CBB617B690E4A02FB03F2BB6936
:1011DC00B2FBF3F37B6204E07B690B4A02FB03F383
:1011EC007B627B6A3B6202E0064B3B6200BF3B6A60
:1011FC0018462837BD4690BC704700BF9C1D0008A0
:10120C000010024000127A0000093D0080B485B045
:10121C0000AF78600A4B1B680A4AA2FB03235B0AE7
:10122C007A6802FB03F3FB6000BFFB685A1EFA608E
:10123C00002BF9D100BF00BF1437BD4680BC7047EE
:10124C0000000020D34D621080B582B000AF7860F2
:10125C007B68002B01D1012376E07B685B6A002B55
:10126C0008D17B685B68B3F5827F09D07B6800226C
:10127C00DA6105E07B6800221A617B6800225A6102
:10128C007B6800229A627B6893F85130DBB2002BAA
:10129C0006D17B68002283F850207868FFF776F837
:1012AC007B68022283F851207B681B681A687B6874
:1012BC001B6822F040021A607B685B6803F4827240
:1012CC007B689B6803F404431A437B68DB6803F474
:1012DC0000631A437B681B6903F002031A437B68A3
:1012EC005B6903F001031A437B689B6903F4007389
:1012FC001A437B68DB6903F038031A437B681B6A6B
:10130C0003F0800342EA03017B689B6A03F40052FA
:10131C007B681B680A431A607B689B691A0C7B68A4
:10132C001B6802F004025A607B681B68DA697B68F0
:10133C001B6822F40062DA617B6800225A657B68C4
:10134C00012283F85120002318460837BD4680BD82
:10135C0080B588B000AFF860B9603B601346FB8085
:10136C000023FB77FB6893F85030012B01D102234B
:10137C0026E1FB68012283F85020FFF7FDF8B861E5
:10138C00FB88FB82FB6893F85130DBB2012B02D057
:10139C000223FB770BE1BB68002B02D0FB88002BF0
:1013AC0002D10123FB7702E1FB68032283F8512071
:1013BC00FB6800225A65FB68BA681A63FB68FA88F6
:1013CC009A86FB68FA88DA86FB6800229A63FB68C7
:1013DC0000229A87FB680022DA87FB6800225A6495
:1013EC00FB6800221A64FB689B68B3F5004F0FD1B1
:1013FC00FB681B681A68FB681B6822F040021A60C5
:10140C00FB681B681A68FB681B6842F480421A6010
:10141C00FB681B681B6803F04003402B07D0FB687C
:10142C001B681A68FB681B6842F040021A60FB6874
:10143C00DB68B3F5006F4BD1FB685B68002B02D007
:10144C00FB8A012B3ED1FB681B6B1A88FB681B685F
:10145C00DA60FB681B6B9A1CFB681A63FB68DB8EFB
:10146C009BB2013B9AB2FB68DA862BE0FB681B68E7
:10147C009B6803F00203022B12D1FB681B6B1A88CA
:10148C00FB681B68DA60FB681B6B9A1CFB681A63B1
:10149C00FB68DB8E9BB2013B9AB2FB68DA8611E0EB
:1014AC00FFF76AF80246BB69D31A3A689A4203D826
:1014BC003B68B3F1FF3F02D13B68002B02D1032301
:1014CC00FB7774E0FB68DB8E9BB2002BCED14CE03B
:1014DC00FB685B68002B02D0FB8A012B40D1FB68B8
:1014EC001A6BFB681B680C3312781A70FB681B6B49
:1014FC005A1CFB681A63FB68DB8E9BB2013B9AB2E9
:10150C00FB68DA862CE0FB681B689B6803F002031F
:10151C00022B13D1FB681A6BFB681B680C33127817
:10152C001A70FB681B6B5A1CFB681A63FB68DB8E1A
:10153C009BB2013B9AB2FB68DA8611E0FFF71CF80C
:10154C000246BB69D31A3A689A4203D83B68B3F196
:10155C00FF3F02D13B68002B02D10323FB7726E02F
:10156C00FB68DB8E9BB2002BCDD1BA693968F86869
:10157C0000F0B8FB0346002B02D0FB6820225A6512
:10158C00FB689B68002B0AD100233B61FB681B683E
:10159C00DB683B61FB681B689B683B613B69FB68D4
:1015AC005B6D002B02D00123FB7700E000BFFB68D2
:1015BC00012283F85120FB68002283F85020FB7F26
:1015CC0018462037BD4680BD80B588B002AFF860A4
:1015DC00B9603B601346FB800023FB75FB685B68BE
:1015EC00B3F5827F12D1FB689B68002B0ED1FB6890
:1015FC00042283F85120FA883B6800931346BA689A
:10160C00B968F86800F0F1F80346EAE0FB6893F873
:10161C005030012B01D10223E3E0FB68012283F857
:10162C005020FEF7A9FF3861FB6893F85130DBB20C
:10163C00012B02D00223FB75CAE0BB68002B02D041
:10164C00FB88002B02D10123FB75C1E0FB6804224F
:10165C0083F85120FB6800225A65FB68BA689A63CC
:10166C00FB68FA889A87FB68FA88DA87FB6800229D
:10167C001A63FB6800229A86FB680022DA86FB68F4
:10168C0000221A64FB6800225A64FB689B68B3F55D
:10169C00004F0FD1FB681B681A68FB681B6822F0AF
:1016AC0040021A60FB681B681A68FB681B6822F40E
:1016BC0080421A60FB681B681B6803F04003402BD8
:1016CC0007D0FB681B681A68FB681B6842F0400275
:1016DC001A60FB68DB68002B62D12EE0FB681B688C
:1016EC009B6803F00103012B15D1FB681B6803F108
:1016FC000C02FB689B6B1278D2B21A70FB689B6B66
:10170C005A1CFB689A63FB68DB8F9BB2013B9AB255
:10171C00FB68DA8711E0FEF72FFF02463B69D31A0C
:10172C003A689A4203D83B68B3F1FF3F02D13B6859
:10173C00002B02D10323FB754AE0FB68DB8F9BB2C5
:10174C00002BCBD131E0FB681B689B6803F00103D5
:10175C00012B13D1FB681B68DA68FB689B6B92B298
:10176C001A80FB689B6B9A1CFB689A63FB68DB8F87
:10177C009BB2013B9AB2FB68DA8711E0FEF7FCFEE4
:10178C0002463B69D31A3A689A4203D83B68B3F1D4
:10179C00FF3F02D13B68002B02D10323FB7517E0FE
:1017AC00FB68DB8F9BB2002BCDD13A693968F868A6
:1017BC0000F046FA0346002B02D0FB6820225A6543
:1017CC00FB685B6D002B02D00123FB7500E000BFB2
:1017DC00FB68012283F85120FB68002283F850201B
:1017EC00FB7D18461837BD4680BD80B58CB000AF68
:1017FC00F860B9607A607B800123FB62002387F874
:10180C002B30FB6893F85030012B01D102238AE175
:10181C00FB68012283F85020FEF7AEFE7862FB686D
:10182C0093F8513087F82330FB685B68FB617B8849
:10183C007B8397F82330012B0FD0FB69B3F5827FA4
:10184C0007D1FB689B68002B03D197F82330042B3E
:10185C0003D0022387F82B305BE1BB68002B05D04B
:10186C007B68002B02D07B88002B03D1012387F8E7
:10187C002B304EE1FB6893F85130DBB2042B03D0D4
:10188C00FB68052283F85120FB6800225A65FB682F
:10189C007A689A63FB687A88DA87FB687A889A8711
:1018AC00FB68BA681A63FB687A88DA86FB687A8800
:1018BC009A86FB6800221A64FB6800225A64FB6853
:1018CC001B681B6803F04003402B07D0FB681B68A8
:1018DC001A68FB681B6842F040021A60FB68DB6800
:1018EC00B3F5006F78D1FB685B68002B02D07B8B63
:1018FC00012B66D1FB681B6B1A88FB681B68DA60CE
:10190C00FB681B6B9A1CFB681A63FB68DB8E9BB233
:10191C00013B9AB2FB68DA8653E0FB681B689B6854
:10192C0003F00203022B1BD1FB68DB8E9BB2002B56
:10193C0016D0FB6A012B13D1FB681B6B1A88FB6852
:10194C001B68DA60FB681B6B9A1CFB681A63FB68EC
:10195C00DB8E9BB2013B9AB2FB68DA860023FB62FA
:10196C00FB681B689B6803F00103012B19D1FB6812
:10197C00DB8F9BB2002B14D0FB681B68DA68FB680A
:10198C009B6B92B21A80FB689B6B9A1CFB689A63E8
:10199C00FB68DB8F9BB2013B9AB2FB68DA870123B1
:1019AC00FB62FEF7E9FD02467B6AD31ABA6B9A42D8
:1019BC0007D8BB6BB3F1FF3F03D0032387F82B3061
:1019CC00A7E0FB68DB8E9BB2002BA6D1FB68DB8FFC
:1019DC009BB2002BA1D17CE0FB685B68002B02D092
:1019EC007B8B012B6BD1FB681A6BFB681B680C3370
:1019FC0012781A70FB681B6B5A1CFB681A63FB6825
:101A0C00DB8E9BB2013B9AB2FB68DA8657E0FB682F
:101A1C001B689B6803F00203022B1CD1FB68DB8E56
:101A2C009BB2002B17D0FB6A012B14D1FB681A6BED
:101A3C00FB681B680C3312781A70FB681B6B5A1C02
:101A4C00FB681A63FB68DB8E9BB2013B9AB2FB68A6
:101A5C00DA860023FB62FB681B689B6803F00103BA
:101A6C00012B19D1FB68DB8F9BB2002B14D0FB68C8
:101A7C001B68DA68FB689B6BD2B21A70FB689B6BB5
:101A8C005A1CFB689A63FB68DB8F9BB2013B9AB2D2
:101A9C00FB68DA870123FB62FEF76EFD02467B6A68
:101AAC00D31ABA6B9A4203D8BB6BB3F1FF3F02D186
:101ABC00BB6B002B03D1032387F82B3029E0FB6889
:101ACC00DB8E9BB2002BA2D1FB68DB8F9BB2002B71
:101ADC009DD17A6AB96BF86800F004F90346002BC3
:101AEC0006D0012387F82B30FB6820225A6510E0C2
:101AFC00FB689B68002B0BD100237B61FB681B6888
:101B0C00DB687B61FB681B689B687B617B6900E021
:101B1C0000BFFB68012283F85120FB68002283F888
:101B2C00502097F82B3018463037BD4680BD00004A
:101B3C0080B588B000AFF860B9603B601346FB71AC
:101B4C00FEF71AFD0246BB6A9B1A3A681344FB6106
:101B5C00FEF712FDB861394B1B685B011B0DFA696E
:101B6C0002FB03F37B6154E03B68B3F1FF3F50D0C1
:101B7C00FEF702FD0246BB69D31AFA699A4202D9F2
:101B8C00FB69002B3DD1FB681B685A68FB681B681E
:101B9C0022F0E0025A60FB685B68B3F5827F11D1DA
:101BAC00FB689B68B3F5004F04D0FB689B68B3F5EA
:101BBC00806F07D1FB681B681A68FB681B6822F0F2
:101BCC0040021A60FB689B6AB3F5005F0FD1FB689B
:101BDC001B681A68FB681B6822F400521A60FB68C9
:101BEC001B681A68FB681B6842F400521A60FB6899
:101BFC00012283F85120FB68002283F85020032334
:101C0C0017E07B69002B01D10023FB617B69013B51
:101C1C007B61FB681B689A68BB681340BA689A4280
:101C2C000CBF01230023DBB21A46FB799A429BD1ED
:101C3C00002318462037BD4680BD00BF00000020A1
:101C4C0080B586B002AFF860B9607A60FB685B68FB
:101C5C00B3F5827F11D1FB689B68B3F5004F04D0BC
:101C6C00FB689B68B3F5806F07D1FB681B681A682B
:101C7C00FB681B6822F040021A60FB685B68B3F5D6
:101C8C00827F17D1FB689B68B3F5806F12D17B689C
:101C9C000093BB6800220121F868FFF749FF034657
:101CAC00002B1AD0FB685B6D43F02002FB685A6571
:101CBC00032313E07B680093BB6800228021F86843
:101CCC00FFF736FF0346002B07D0FB685B6D43F034
:101CDC002002FB685A65032300E0002318461037E6
:101CEC00BD4680BD80B586B002AFF860B9607A6041
:101CFC007B680093BB6800228021F868FFF718FF0F
:101D0C000346002B07D0FB685B6D43F02002FB6899
:101D1C005A65032300E0002318461037BD4680BDEA
:101D2C0070B500260C4D0D4C641BA410A64209D1B5
:101D3C0000F022F800260A4D0A4C641BA410A6429F
:101D4C0005D170BD55F8043B98470136EEE755F8C0
:101D5C00043B98470136F2E7BC1D0008BC1D000887
:101D6C00BC1D0008C01D000803460244934200D16C
:101D7C00704703F8011BF9E7F8B500BFF8BC08BCC5
:101D8C009E467047F8B500BFF8BC08BC9E4670472D
:101D9C0002030405060708090A0B0C0D0E0F1010A0
:101DAC0000000000000000000102030406070809FF
:041DBC0031010008E9
:041DC0000D01000809
:0C1DC4000024F4001000000001000000EA
:040000050800048962
:00000001FF
